{
  "contractName": "StringStorage",
  "abi": [
    {
      "anonymous": false,
      "inputs": [
        {
          "indexed": false,
          "internalType": "string",
          "name": "value",
          "type": "string"
        }
      ],
      "name": "StringStored",
      "type": "event"
    },
    {
      "constant": true,
      "inputs": [
        {
          "internalType": "uint256",
          "name": "",
          "type": "uint256"
        }
      ],
      "name": "strings",
      "outputs": [
        {
          "internalType": "string",
          "name": "",
          "type": "string"
        }
      ],
      "payable": false,
      "stateMutability": "view",
      "type": "function"
    },
    {
      "constant": false,
      "inputs": [
        {
          "internalType": "string",
          "name": "value",
          "type": "string"
        }
      ],
      "name": "storeString",
      "outputs": [],
      "payable": false,
      "stateMutability": "nonpayable",
      "type": "function"
    },
    {
      "constant": true,
      "inputs": [],
      "name": "getStringCount",
      "outputs": [
        {
          "internalType": "uint256",
          "name": "",
          "type": "uint256"
        }
      ],
      "payable": false,
      "stateMutability": "view",
      "type": "function"
    },
    {
      "constant": true,
      "inputs": [
        {
          "internalType": "uint256",
          "name": "index",
          "type": "uint256"
        }
      ],
      "name": "getStringByIndex",
      "outputs": [
        {
          "internalType": "string",
          "name": "",
          "type": "string"
        }
      ],
      "payable": false,
      "stateMutability": "view",
      "type": "function"
    }
  ],
  "bytecode": "0x608060405234801561001057600080fd5b50610628806100206000396000f3fe608060405234801561001057600080fd5b506004361061004c5760003560e01c80631bb8305d14610051578063508cd1aa1461010c5780638b3c8a651461012a578063e9622403146101d1575b600080fd5b61010a6004803603602081101561006757600080fd5b810190808035906020019064010000000081111561008457600080fd5b82018360208201111561009657600080fd5b803590602001918460018302840111640100000000831117156100b857600080fd5b91908080601f016020809104026020016040519081016040528093929190818152602001838380828437600081840152601f19601f820116905080830192505050505050509192919290505050610278565b005b610114610356565b6040518082815260200191505060405180910390f35b6101566004803603602081101561014057600080fd5b8101908080359060200190929190505050610362565b6040518080602001828103825283818151815260200191508051906020019080838360005b8381101561019657808201518184015260208101905061017b565b50505050905090810190601f1680156101c35780820380516001836020036101000a031916815260200191505b509250505060405180910390f35b6101fd600480360360208110156101e757600080fd5b810190808035906020019092919050505061041b565b6040518080602001828103825283818151815260200191508051906020019080838360005b8381101561023d578082015181840152602081019050610222565b50505050905090810190601f16801561026a5780820380516001836020036101000a031916815260200191505b509250505060405180910390f35b60008190806001815401808255809150509060018203906000526020600020016000909192909190915090805190602001906102b592919061054e565b50507fb44f9f8be0de67b8c4c09b6a9d75ba53dc041b8c6e532b764b50e486eacd38e4816040518080602001828103825283818151815260200191508051906020019080838360005b838110156103195780820151818401526020810190506102fe565b50505050905090810190601f1680156103465780820380516001836020036101000a031916815260200191505b509250505060405180910390a150565b60008080549050905090565b6000818154811061036f57fe5b906000526020600020016000915090508054600181600116156101000203166002900480601f0160208091040260200160405190810160405280929190818152602001828054600181600116156101000203166002900480156104135780601f106103e857610100808354040283529160200191610413565b820191906000526020600020905b8154815290600101906020018083116103f657829003601f168201915b505050505081565b60606000805490508210610497576040517f08c379a00000000000000000000000000000000000000000000000000000000081526004018080602001828103825260138152602001807f496e646578206f7574206f6620626f756e64730000000000000000000000000081525060200191505060405180910390fd5b600082815481106104a457fe5b906000526020600020018054600181600116156101000203166002900480601f0160208091040260200160405190810160405280929190818152602001828054600181600116156101000203166002900480156105425780601f1061051757610100808354040283529160200191610542565b820191906000526020600020905b81548152906001019060200180831161052557829003601f168201915b50505050509050919050565b828054600181600116156101000203166002900490600052602060002090601f016020900481019282601f1061058f57805160ff19168380011785556105bd565b828001600101855582156105bd579182015b828111156105bc5782518255916020019190600101906105a1565b5b5090506105ca91906105ce565b5090565b6105f091905b808211156105ec5760008160009055506001016105d4565b5090565b9056fea265627a7a72315820a9109b1d7067a02d6d1e02e9498b548467bdced0100ae94561d2e79e46de2f9564736f6c63430005100032",
  "source": "// SPDX-License-Identifier: MIT\r\npragma solidity ^0.5.0;\r\n\r\ncontract StringStorage {\r\n    string[] public strings;\r\n\r\n    event StringStored(string value);\r\n\r\n    function storeString(string memory value) public {\r\n        strings.push(value);\r\n        emit StringStored(value);\r\n    }\r\n    function getStringCount() public view returns (uint256) {\r\n        return strings.length;\r\n    }\r\n    function getStringByIndex(uint256 index) public view returns (string memory) {\r\n        require(index < strings.length, \"Index out of bounds\");\r\n        return strings[index];\r\n    }\r\n}\r\n",
  "sourcePath": "C:\\Users\\chdin\\OneDrive\\Desktop\\certi\\backend\\contract\\contracts\\NewContract.sol",
  "compiler": {
    "name": "solc",
    "version": "0.5.16+commit.9c3226ce.Emscripten.clang"
  },
  "schemaVersion": "3.4.16",
  "updatedAt": "2023-12-02T01:36:52.020Z",
  "networkType": "ethereum",
  "devdoc": {
    "methods": {}
  },
  "userdoc": {
    "methods": {}
  }
}